{
  "contractName": "Dex",
  "abi": [
    {
      "inputs": [
        {
          "internalType": "address[]",
          "name": "_tokenAddr",
          "type": "address[]"
        }
      ],
      "stateMutability": "nonpayable",
      "type": "constructor"
    },
    {
      "anonymous": false,
      "inputs": [
        {
          "indexed": false,
          "internalType": "address",
          "name": "account",
          "type": "address"
        },
        {
          "indexed": false,
          "internalType": "address",
          "name": "_tokenAddr",
          "type": "address"
        },
        {
          "indexed": false,
          "internalType": "uint256",
          "name": "_cost",
          "type": "uint256"
        },
        {
          "indexed": false,
          "internalType": "uint256",
          "name": "_amount",
          "type": "uint256"
        }
      ],
      "name": "buy",
      "type": "event"
    },
    {
      "anonymous": false,
      "inputs": [
        {
          "indexed": false,
          "internalType": "address",
          "name": "account",
          "type": "address"
        },
        {
          "indexed": false,
          "internalType": "address",
          "name": "_tokenAddr",
          "type": "address"
        },
        {
          "indexed": false,
          "internalType": "uint256",
          "name": "_cost",
          "type": "uint256"
        },
        {
          "indexed": false,
          "internalType": "uint256",
          "name": "_amount",
          "type": "uint256"
        }
      ],
      "name": "sell",
      "type": "event"
    },
    {
      "inputs": [
        {
          "internalType": "address",
          "name": "",
          "type": "address"
        }
      ],
      "name": "supportedTokenAddr",
      "outputs": [
        {
          "internalType": "bool",
          "name": "",
          "type": "bool"
        }
      ],
      "stateMutability": "view",
      "type": "function",
      "constant": true
    },
    {
      "inputs": [
        {
          "internalType": "address",
          "name": "_tokenAddr",
          "type": "address"
        },
        {
          "internalType": "uint256",
          "name": "_cost",
          "type": "uint256"
        },
        {
          "internalType": "uint256",
          "name": "_amount",
          "type": "uint256"
        }
      ],
      "name": "buyToken",
      "outputs": [],
      "stateMutability": "payable",
      "type": "function",
      "payable": true
    },
    {
      "inputs": [
        {
          "internalType": "address",
          "name": "_tokenAddr",
          "type": "address"
        },
        {
          "internalType": "uint256",
          "name": "_cost",
          "type": "uint256"
        },
        {
          "internalType": "uint256",
          "name": "_amount",
          "type": "uint256"
        }
      ],
      "name": "SellToken",
      "outputs": [],
      "stateMutability": "nonpayable",
      "type": "function"
    }
  ],
  "bytecode": "0x60806040523480156200001157600080fd5b5060405162000ff438038062000ff48339818101604052810190620000379190620002c4565b60005b8151811015620000ce5760016000808484815181106200005f576200005e62000315565b5b602002602001015173ffffffffffffffffffffffffffffffffffffffff1673ffffffffffffffffffffffffffffffffffffffff16815260200190815260200160002060006101000a81548160ff0219169083151502179055508080620000c5906200037d565b9150506200003a565b5050620003ca565b6000604051905090565b600080fd5b600080fd5b600080fd5b6000601f19601f8301169050919050565b7f4e487b7100000000000000000000000000000000000000000000000000000000600052604160045260246000fd5b6200013a82620000ef565b810181811067ffffffffffffffff821117156200015c576200015b62000100565b5b80604052505050565b600062000171620000d6565b90506200017f82826200012f565b919050565b600067ffffffffffffffff821115620001a257620001a162000100565b5b602082029050602081019050919050565b600080fd5b600073ffffffffffffffffffffffffffffffffffffffff82169050919050565b6000620001e582620001b8565b9050919050565b620001f781620001d8565b81146200020357600080fd5b50565b6000815190506200021781620001ec565b92915050565b6000620002346200022e8462000184565b62000165565b905080838252602082019050602084028301858111156200025a5762000259620001b3565b5b835b8181101562000287578062000272888262000206565b8452602084019350506020810190506200025c565b5050509392505050565b600082601f830112620002a957620002a8620000ea565b5b8151620002bb8482602086016200021d565b91505092915050565b600060208284031215620002dd57620002dc620000e0565b5b600082015167ffffffffffffffff811115620002fe57620002fd620000e5565b5b6200030c8482850162000291565b91505092915050565b7f4e487b7100000000000000000000000000000000000000000000000000000000600052603260045260246000fd5b7f4e487b7100000000000000000000000000000000000000000000000000000000600052601160045260246000fd5b6000819050919050565b60006200038a8262000373565b91507fffffffffffffffffffffffffffffffffffffffffffffffffffffffffffffffff8203620003bf57620003be62000344565b5b600182019050919050565b610c1a80620003da6000396000f3fe6080604052600436106100345760003560e01c8063096db4d614610039578063a8ff15eb14610076578063e671499b1461009f575b600080fd5b34801561004557600080fd5b50610060600480360381019061005b91906106a0565b6100bb565b60405161006d91906106e8565b60405180910390f35b34801561008257600080fd5b5061009d60048036038101906100989190610739565b6100db565b005b6100b960048036038101906100b49190610739565b6103e4565b005b60006020528060005260406000206000915054906101000a900460ff1681565b82600115156000808373ffffffffffffffffffffffffffffffffffffffff1673ffffffffffffffffffffffffffffffffffffffff16815260200190815260200160002060009054906101000a900460ff1615151461016e576040517f08c379a0000000000000000000000000000000000000000000000000000000008152600401610165906107e9565b60405180910390fd5b6000849050838173ffffffffffffffffffffffffffffffffffffffff166370a08231336040518263ffffffff1660e01b81526004016101ad9190610818565b602060405180830381865afa1580156101ca573d6000803e3d6000fd5b505050506040513d601f19601f820116820180604052508101906101ee9190610848565b101561022f576040517f08c379a0000000000000000000000000000000000000000000000000000000008152600401610226906108c1565b60405180910390fd5b82471015610272576040517f08c379a00000000000000000000000000000000000000000000000000000000081526004016102699061092d565b60405180910390fd5b8073ffffffffffffffffffffffffffffffffffffffff166323b872dd3330876040518463ffffffff1660e01b81526004016102af9392919061095c565b6020604051808303816000875af11580156102ce573d6000803e3d6000fd5b505050506040513d601f19601f820116820180604052508101906102f291906109bf565b5060003373ffffffffffffffffffffffffffffffffffffffff168460405161031990610a1d565b60006040518083038185875af1925050503d8060008114610356576040519150601f19603f3d011682016040523d82523d6000602084013e61035b565b606091505b505090508061039f576040517f08c379a000000000000000000000000000000000000000000000000000000000815260040161039690610a7e565b60405180910390fd5b7f31de7d15e9e6c3b6f319c842341b735c0f9d7a5d06944314495f952400bd74c0338787876040516103d49493929190610a9e565b60405180910390a1505050505050565b82600115156000808373ffffffffffffffffffffffffffffffffffffffff1673ffffffffffffffffffffffffffffffffffffffff16815260200190815260200160002060009054906101000a900460ff16151514610477576040517f08c379a000000000000000000000000000000000000000000000000000000000815260040161046e906107e9565b60405180910390fd5b60008490508334146104be576040517f08c379a00000000000000000000000000000000000000000000000000000000081526004016104b590610b2f565b60405180910390fd5b828173ffffffffffffffffffffffffffffffffffffffff166370a08231306040518263ffffffff1660e01b81526004016104f89190610818565b602060405180830381865afa158015610515573d6000803e3d6000fd5b505050506040513d601f19601f820116820180604052508101906105399190610848565b101561057a576040517f08c379a000000000000000000000000000000000000000000000000000000000815260040161057190610b9b565b60405180910390fd5b8073ffffffffffffffffffffffffffffffffffffffff1663a9059cbb33856040518363ffffffff1660e01b81526004016105b5929190610bbb565b6020604051808303816000875af11580156105d4573d6000803e3d6000fd5b505050506040513d601f19601f820116820180604052508101906105f891906109bf565b507fa9d424e2b661a4cf6090e4849fd2d81c17106afa4b26188dcc493a69ea4c2b5e3386868660405161062e9493929190610a9e565b60405180910390a15050505050565b600080fd5b600073ffffffffffffffffffffffffffffffffffffffff82169050919050565b600061066d82610642565b9050919050565b61067d81610662565b811461068857600080fd5b50565b60008135905061069a81610674565b92915050565b6000602082840312156106b6576106b561063d565b5b60006106c48482850161068b565b91505092915050565b60008115159050919050565b6106e2816106cd565b82525050565b60006020820190506106fd60008301846106d9565b92915050565b6000819050919050565b61071681610703565b811461072157600080fd5b50565b6000813590506107338161070d565b92915050565b6000806000606084860312156107525761075161063d565b5b60006107608682870161068b565b935050602061077186828701610724565b925050604061078286828701610724565b9150509250925092565b600082825260208201905092915050565b7f5468697320546f6b656e204973204e6f7420537570706f727465640000000000600082015250565b60006107d3601b8361078c565b91506107de8261079d565b602082019050919050565b60006020820190508181036000830152610802816107c6565b9050919050565b61081281610662565b82525050565b600060208201905061082d6000830184610809565b92915050565b6000815190506108428161070d565b92915050565b60006020828403121561085e5761085d61063d565b5b600061086c84828501610833565b91505092915050565b7f496e73756666696369656e7420546f6b656e2042616c616e6500000000000000600082015250565b60006108ab60198361078c565b91506108b682610875565b602082019050919050565b600060208201905081810360008301526108da8161089e565b9050919050565b7f44657820446f6573204e6f74204861766520456e6f7567682046756e64730000600082015250565b6000610917601e8361078c565b9150610922826108e1565b602082019050919050565b600060208201905081810360008301526109468161090a565b9050919050565b61095681610703565b82525050565b60006060820190506109716000830186610809565b61097e6020830185610809565b61098b604083018461094d565b949350505050565b61099c816106cd565b81146109a757600080fd5b50565b6000815190506109b981610993565b92915050565b6000602082840312156109d5576109d461063d565b5b60006109e3848285016109aa565b91505092915050565b600081905092915050565b50565b6000610a076000836109ec565b9150610a12826109f7565b600082019050919050565b6000610a28826109fa565b9150819050919050565b7f454854205472616e73666572204661696c6564202e2e2e200000000000000000600082015250565b6000610a6860188361078c565b9150610a7382610a32565b602082019050919050565b60006020820190508181036000830152610a9781610a5b565b9050919050565b6000608082019050610ab36000830187610809565b610ac06020830186610809565b610acd604083018561094d565b610ada606083018461094d565b95945050505050565b7f496e73756666696369656e742046756e64000000000000000000000000000000600082015250565b6000610b1960118361078c565b9150610b2482610ae3565b602082019050919050565b60006020820190508181036000830152610b4881610b0c565b9050919050565b7f546f6b656e20536f6c64204f7574000000000000000000000000000000000000600082015250565b6000610b85600e8361078c565b9150610b9082610b4f565b602082019050919050565b60006020820190508181036000830152610bb481610b78565b9050919050565b6000604082019050610bd06000830185610809565b610bdd602083018461094d565b939250505056fea2646970667358221220a243ad8c5f00de87a21d8b49def37f7ab85ff76a1dd46374668379b1ffe4957e64736f6c634300080e0033",
  "immutableReferences": {},
  "source": "// // SPDX-License-Identifier:MIT\npragma solidity ^0.8.14;\nimport \"./ERC20.sol\";\n// \n// interface  import \ncontract Dex{\n    event buy(address account, address _tokenAddr, uint256 _cost, uint256 _amount);\n    event sell(address account, address _tokenAddr, uint256 _cost, uint256 _amount);\n\n    // _tokenAddr\n    // SolidityBoolFalse.True\n    mapping (address => bool) public supportedTokenAddr;\n\n    modifier suppoertsToken(address _tokenAddr){\n        require(supportedTokenAddr[_tokenAddr] == true, \"This Token Is Not Supported\");\n        _;\n    }\n    // _tokenAddr deploy\n    // [dai.address, link.address, comp.address]\n    constructor (address[] memory _tokenAddr){\n        for (uint i=0; i < _tokenAddr.length; i++){\n            supportedTokenAddr[_tokenAddr[i]] = true;\n        }\n    }\n    // EthDexpayable\n    // payable{from:, value:, }\n    function buyToken(address _tokenAddr, uint256 _cost, uint256 _amount) external payable suppoertsToken(_tokenAddr){\n        // \n        ERC20 token = ERC20(_tokenAddr);\n        // cost\n        require(msg.value == _cost, \"Insufficient Fund\");\n        // DEXToken\n        require(token.balanceOf(address(this)) >= _amount, \"Token Sold Out\");\n        token.transfer(msg.sender, _amount);\n\n        emit buy(msg.sender, _tokenAddr, _cost, _amount);\n    }\n\n    function SellToken(address _tokenAddr, uint256 _cost, uint256 _amount) external suppoertsToken(_tokenAddr){\n        ERC20 token = ERC20(_tokenAddr);\n\n        require(token.balanceOf(msg.sender) >= _cost,\"Insufficient Token Balane\");\n        // Eth\n        // address(this).balance .. Eth\n        require(address(this).balance >= _amount, \"Dex Does Not Have Enough Funds\");\n        // DexTransfer\n        token.transferFrom(msg.sender, address(this), _cost);\n        // Eth\n        (bool success, ) = payable(msg.sender).call{value: _amount}(\"\");\n        require(success, \"EHT Transfer Failed ... \");\n        emit sell(msg.sender, _tokenAddr, _cost, _amount);\n\n    }\n}",
  "sourcePath": "/Users/apple/Project/Solidity/dex-practice/contracts/dex.sol",
  "compiler": {
    "name": "solc",
    "version": "0.8.14+commit.80d49f37.Emscripten.clang"
  },
  "schemaVersion": "3.4.7",
  "updatedAt": "2022-08-09T10:41:32.431Z",
  "networkType": "ethereum",
  "devdoc": {
    "kind": "dev",
    "methods": {},
    "version": 1
  },
  "userdoc": {
    "kind": "user",
    "methods": {},
    "version": 1
  }
}